:1000000072C000009FC000009CC000009AC00000A9
:1000100098C0000096C0000094C0000092C000008C
:1000200090C000008EC000008CC000008AC000009C
:1000300088C0000086C0000084C0000082C00000AC
:1000400080C000007EC000007CC000007AC00000BC
:1000500078C0000076C0000074C0000072C00000CC
:1000600070C000009DC000006CC000006AC00000AD
:1000700068C0000066C0000064C0000062C00000EC
:1000800060C000005EC000005CC000005AC00000FC
:1000900058C0000056C0000054C0000052C000000C
:1000A00050C000004EC000004CC000004AC000001C
:1000B00048C0000046C0000044C0000042C000002C
:1000C00040C000003EC000003CC000003AC000003C
:1000D00038C0000036C0000034C0000032C000004C
:1000E00030C00000BA0111241FBECFEFD1E2DEBF45
:1000F000CDBF00E00CBF12E0A0E0B2E0E2E4F4E02B
:1001000000E00BBF02C007900D92A033B107D9F7F2
:1001100022E0A0E3B2E001C01D92A333B207E1F7F1
:1001200010E0C3E7D0E000E005C021970109802F6F
:10013000FE017DD1C237D10780E00807B1F750D06A
:100140007EC15ECF1F920F920FB60F9211240BB695
:100150000F922F933F934F935F936F937F938F9360
:100160009F93AF93BF93EF93FF9361E070E080E3C1
:1001700092E00CD183B1805885B9FF91EF91BF9186
:10018000AF919F918F917F916F915F914F913F912F
:100190002F910F900BBE0F900FBE0F901F901895D0
:1001A0001F920F920FB60F9211248F938091C60069
:1001B000809332028F910F900FBE0F901F90189571
:1001C0007894E89AE9E6F0E0808181608083089580
:1001D0008FEF84B987B91AB815B818B81BB8089545
:1001E000CF93DF93CDB7DEB769970FB6F894DEBF34
:1001F0000FBECDBFEDDFE4DFCE010196EFD06E0183
:100200002EE0C20ED11C992493947E018AE1E80E5F
:10021000F11CAA24A394B12C0F2EF0E38F2EF02D05
:1002200060E172E0CE010196EED09FEFE3EDF0E3E6
:100230009150E040F040E1F700C0000080913202B0
:10024000813669F080913202823649F08091320223
:10025000833629F080913202843609F088C080917B
:1002600032028136E9F46FE172E0CE010196CBD023
:100270001B821A82BD82AC821F821E82B986A8862A
:100280001B861A86BD86AC86BF86AE86198A188AFA
:10029000BB8AAA8A1D8A1C8ABF8AAE8A198E188ECA
:1002A00080E392E07AD08E010E5F1F4F80E392E0F0
:1002B00069D0892BD9F3F80180810E5F1F4F88B96F
:1002C00084B584BD85B5826085BDA89BFECF18B876
:1002D00085B585BD95BA60E070E080E392E056D0C8
:1002E000C016D10619F78E01025F1F4F80E392E01E
:1002F00049D0892BD9F3F80180810E5F1F4F88B94F
:1003000084B584BD85B5826085BDA89BFECF18B835
:1003100085B585BD95BA60E070E080E392E036D0A7
:100320000E151F0519F700E010E080E392E02AD0D7
:10033000892BD9F3F801EE0FFF1FE050FE4F8081AB
:10034000918188B984B584BD85B5826085BDA89B3F
:10035000FECF18B885B585BD95BA60E070E080E342
:1003600092E014D00F5F1F4F04301105F1F6809218
:10037000320256CF80E392E001C00895FC01118261
:1003800010820895FC018081918108956230710589
:1003900018F4FC01718360830895DC01E8E0F2E069
:1003A00060E172E041E02D913C91119721153105FA
:1003B000E9F38081329688B984B584BD95B59260A1
:1003C00095BDA89BFECF18B885B585BD45BB1196D8
:1003D0001C921E92E617F70731F7089588E980937B
:1003E000C10087E690E09093C5008093C40086E04A
:1003F0008093C2000895E0ECF0E0808185FFFDCF9E
:100400006093C60008950F931F93CF93DF93EB0182
:100410006881662339F08C012196C801ECDF69916F
:100420006111FBCFDF91CF911F910F910895EE0FD6
:10043000FF1F881F8BBF0790F691E02D1994F89449
:02044000FFCFEC
:1004420000000100010001000100010001000000A4
:10045200496E67656E206B6F6D6D616E646F004CE7
:10046200616D70656E2065722074E66E64740000C2
:00000001FF
