:1000000072C000009FC000009CC000009AC00000A9
:1000100098C0000096C0000094C0000092C000008C
:1000200090C000008EC000008CC000008AC000009C
:1000300088C0000086C0000084C0000082C00000AC
:1000400080C000007EC000007CC000007AC00000BC
:1000500078C0000076C0000074C0000072C00000CC
:1000600070C000009DC000006CC000006AC00000AD
:1000700068C0000066C0000064C0000062C00000EC
:1000800060C000005EC000005CC000005AC00000FC
:1000900058C0000056C0000054C0000052C000000C
:1000A00050C000004EC000004CC000004AC000001C
:1000B00048C0000046C0000044C0000042C000002C
:1000C00040C000003EC000003CC000003AC000003C
:1000D00038C0000036C0000034C0000032C000004C
:1000E00030C00000200211241FBECFEFD1E2DEBFDE
:1000F000CDBF00E00CBF13E0A0E0B2E0E4EAF6E020
:1001000000E00BBF02C007900D92A63AB107D9F7E5
:1001100023E0A6EAB3E001C01D92A13CB207E1F7DB
:1001200010E0C3E7D0E000E005C021970109802F6F
:10013000FE01AED2C237D10780E00807B1F750D038
:10014000AFC25ECF1F920F920FB60F9211240BB663
:100150000F922F933F934F935F936F937F938F9360
:100160009F93AF93BF93EF93FF9361E070E086EAB4
:1001700093E06ED183B1805885B9FF91EF91BF9123
:10018000AF919F918F917F916F915F914F913F912F
:100190002F910F900BBE0F900FBE0F901F901895D0
:1001A0001F920F920FB60F9211248F938091C60069
:1001B0008093C0038F910F900FBE0F901F901895E2
:1001C0007894E89AE9E6F0E0808181608083089580
:1001D0008FEF84B987B91AB815B818B81BB8089545
:1001E000CF93DF93CDB7DEB769970FB6F894DEBF34
:1001F0000FBECDBFEDDFE4DFCE01019620D268E275
:1002000072E0CE01019630D26EE372E0CE0101962B
:100210002BD26DE672E0CE01019626D26DE972E036
:10022000CE01019621D26DEC72E0CE0101961CD276
:100230006EEF72E0CE01019617D26FE273E0CE014D
:10024000019612D26DE372E0CE0101960DD26DE3FC
:1002500072E0CE01019608D26DE372E0CE01019604
:1002600003D26DE372E0CE010196FED16DE372E040
:10027000CE010196F9D16DE372E0CE010196F4D181
:100280006DE372E0CE010196EFD16DE372E0CE0135
:100290000196EAD16DE372E0CE010196E5D16DE3FE
:1002A00072E0CE010196E0D16DE372E0CE010196DD
:1002B000DBD110E38091C003813369F08091C003EA
:1002C000823349F08091C003833329F08091C003C9
:1002D000843309F0B2C08091C003823379F118F4FD
:1002E000813341F096C0833309F44CC0843309F460
:1002F0006DC08FC061E673E0CE010196B5D18CE090
:10030000E0E1F2E0DE011E9601900D928A95E1F7A0
:10031000BE01625F7F4F86EA93E0A1D08CE0ECE102
:10032000F2E0DE01129601900D928A95E1F7BE018E
:100330006E5F7F4F86EA93E09ED06BC063E773E009
:10034000CE01019691D18CE0E0E1F2E0DE011E9653
:1003500001900D928A95E1F7BE01625F7F4F86EAB8
:1003600093E07DD08CE0E0E1F2E0DE0112960190B6
:100370000D928A95E1F7BE016E5F7F4F86EA93E0AA
:100380007AD047C062E873E0CE0101966DD18CE06F
:10039000ECE1F2E0DE011E9601900D928A95E1F704
:1003A000BE01625F7F4F86EA93E059D08CE0ECE1BA
:1003B000F2E0DE01129601900D928A95E1F7BE01FE
:1003C0006E5F7F4F86EA93E056D023C063E973E007
:1003D000CE01019649D18CE0ECE1F2E0DE011E96FF
:1003E00001900D928A95E1F7BE01625F7F4F86EA28
:1003F00093E035D08CE0E0E1F2E0DE01129601906E
:100400000D928A95E1F7BE016E5F7F4F86EA93E019
:1004100032D060E070E086EA93E01AD086EA93E09A
:1004200040D086EA93E071D086EA93E0A1D086EAD4
:1004300093E0D1D083B1809585B91093C0033ACFB2
:1004400086EA93E001C00895FC01118210820895AC
:100450006230710518F4FC01718360830895DB013B
:10046000FC0132960E962D913D9121933193E81720
:10047000F907C9F70895DB01FC013E964A962D91D4
:100480003D9121933193E817F907C9F7089580EF5B
:1004900086BD84B584BD85B5856085BDA89BFECF2E
:1004A0000895DF92EF92FF920F931F93CF93DF9304
:1004B000EC0108E012E00F2EF0E1EF2EF2E0FF2E4B
:1004C000F02DDD24D39488819981892B39F483B16F
:1004D000816085B988819981892BC9F3F801808170
:1004E0000E5F1F4F88B9CE01D2DF18B815BCD5BA40
:1004F000198218820E151F0531F7DF91CF911F91D8
:100500000F91FF90EF90DF900895DF92EF92FF92AE
:100510000F931F93CF93DF93EC018C010E5F1F4F5E
:100520007C018EE0E80EF11CDD24D3948881998152
:10053000892B39F483B1826085B988819981892BAF
:10054000C9F3F80180810E5F1F4F88B9CE019FDF8C
:1005500018B815BCD5BA198218820E151F0531F7C7
:10056000DF91CF911F910F91FF90EF90DF90089551
:10057000DF92EF92FF920F931F93CF93DF93EC01E3
:100580008C01025F1F4F7C018AE1E80EF11CDD2423
:10059000D39488819981892B39F483B1846085B99A
:1005A00088819981892BC9F3F80180810E5F1F4FE3
:1005B00088B9CE016CDF18B815BCD5BA198218827B
:1005C0000E151F0531F7DF91CF911F910F91FF900D
:1005D000EF90DF900895DF92EF92FF920F931F93B9
:1005E000CF93DF93EC0100E012E00F2EF8E0EF2E46
:1005F000F2E0FF2EF02DDD24D39488819981892BA0
:1006000039F483B1886085B988819981892BC9F3D0
:10061000F80180810E5F1F4F88B9CE0138DF18B80E
:1006200015BCD5BA198218820E151F0531F7DF9156
:10063000CF911F910F91FF90EF90DF90089588E97F
:100640008093C10087E690E09093C5008093C4003A
:1006500086E08093C2000895E0ECF0E0808185FFA1
:10066000FDCF6093C60008950F931F93CF93DF9340
:10067000EB016881662339F08C012196C801ECDF1B
:1006800069916111FBCFDF91CF911F910F91089577
:10069000EE0FFF1F881F8BBF0790F691E02D199476
:0406A000F894FFCFFC
:1006A4000000010001000100010001000100000040
:1006B4000000010000000100000001000100000032
:1006C400010000000100000050726F6772616D202C
:1006D400737461727465742E0C0A0A0A0D005F5FEC
:1006E4005F5F5F5F5F5F5F5F5F5F5F5F5F5F5F5F16
:1006F4005F5F5F5F5F5F5F5F5F5F5F5F5F5F5F5F06
:100704005F5F5F5F5F5F5F5F5F5F0A0D00202020B8
:100714002058202020202020202058202020202065
:10072400202058202020202020202020202020208D
:10073400202020202058205820580A0D0020202056
:1007440058205820202020202020582020202020FD
:10075400202058202020202020202020202020205D
:10076400202020202020202020580A0D002020585E
:1007740020582058202020202020582020202020CD
:100784002020582020202058205820582058205815
:1007940020582020205820582058200A0D00205886
:1007A40020202020205820202020202058202020D5
:1007B40020205820202020202020202020202020FD
:1007C4002020202020205820202020200A0D0058FE
:1007D40020202020202020582020202020205820A5
:1007E4005820582020202020202020202020202095
:1007F40020202020202020582058205820200A0D76
:10080400000A0D4C616D70656E207461656E6465DF
:10081400732E004C616D70656E20736C756B6B6527
:10082400730047617264696E2072756C6C65732025
:100834006F700047617264696E2072756C6C6573C9
:06084400206E6564000057
:00000001FF
