S01300005472616E736D69747465722E7372656374
S113000072C000009FC000009CC000009AC00000A5
S113001098C0000096C0000094C0000092C0000088
S113002090C000008EC000008CC000008AC0000098
S113003088C0000086C0000084C0000082C00000A8
S113004080C000007EC000007CC000007AC00000B8
S113005078C0000076C0000074C0000072C00000C8
S113006070C000009DC000006CC000006AC00000A9
S113007068C0000066C0000064C0000062C00000E8
S113008060C000005EC000005CC000005AC00000F8
S113009058C0000056C0000054C0000052C0000008
S11300A050C000004EC000004CC000004AC0000018
S11300B048C0000046C0000044C0000042C0000028
S11300C040C000003EC000003CC000003AC0000038
S11300D038C0000036C0000034C0000032C0000048
S11300E030C00000C70111241FBECFEFD1E2DEBF34
S11300F0CDBF00E00CBF13E0A0E0B2E0E6E4F5E021
S113010000E00BBF02C007900D92A03EB107D9F7E3
S113011023E0A0EEB3E001C01D92AF3EB207E1F7C9
S113012010E0C3E7D0E000E005C021970109802F6B
S1130130FE01FFD1C237D10780E00807B1F750D0E4
S113014000C25ECF1F920F920FB60F9211240BB60E
S11301500F922F933F934F935F936F937F938F935C
S11301609F93AF93BF93EF93FF9361E070E080EEB2
S113017093E015D183B1805885B9FF91EF91BF9178
S1130180AF919F918F917F916F915F914F913F912B
S11301902F910F900BBE0F900FBE0F901F901895CC
S11301A01F920F920FB60F9211248F938091C60065
S11301B08093EE038F910F900FBE0F901F901895B0
S11301C07894E89AE9E6F0E080818160808308957C
S11301D08FEF84B987B91AB815B818B81BB8089541
S11301E0CF93DF93CDB7DEB769970FB6F894DEBF30
S11301F00FBECDBFEDDFE4DFCE01019671D160E12A
S113020072E0CE01019681D166E272E0CE010196E0
S11302107CD165E572E0CE01019677D16AE872E09F
S1130220CE01019672D16FEB72E0CE0101966DD1D1
S113023066EF72E0CE01019668D16BE273E0CE0105
S1130240019663D16AE573E0CE0101965ED169E857
S113025073E0CE01019659D165E272E0CE010196B8
S113026054D165E272E0CE0101964FD165E272E0AD
S1130270CE0101964AD165E272E0CE01019645D1E4
S113028065E272E0CE01019640D165E272E0CE01F2
S113029001963BD165E272E0CE01019636D165E26A
S11302A072E0CE01019631D165E272E0CE01019691
S11302B02CD165E272E0CE01019627D165E272E0AD
S11302C0CE01019622D101E010E00F2EF0E3FF2EC3
S11302D0F02D8091EE03813369F08091EE03823634
S11302E049F08091EE03833629F08091EE03843641
S11302F009F04AC08091EE03813319F0823629F166
S113030029C06FEB73E0CE010196FFD01B821A82E5
S11303101D830C831F821E82198708871B861A86F9
S11303201D870C87BE016E5F7F4F80EE93E03ED049
S11303301F870E87198A188A1B8B0A8B1D8A1C8AB1
S11303401F8B0E8B198E188E05C061ED73E0CE01E4
S11303500196DBD060E070E080EE93E020D080EE88
S113036093E030D0BE016E5F7F4F80EE93E04ED0BD
S1130370BE01625F7F4F80EE93E06BD080EE93E02E
S11303808BD083B1809585B9F092EE03A2CF80EE35
S113039093E001C00895FC01118210820895623037
S11303A0710518F4FC01718360830895DB01FC017D
S11303B032960E962D913D9121933193E817F907CA
S11303C0C9F70895FC01A8E0B2E060E172E041E001
S11303D080819181892B39F493B1916095B9208101
S11303E03181232BC9F38C91129688B984B584BDCD
S11303F085B5846085BDA89BFECF18B815BC45BBE8
S113040011821082A617B70719F70895FC01DB01C2
S1130410645F7F4F41E080819181892B39F493B1EE
S1130420926095B920813181232BC9F38C91129666
S113043088B984B584BD85B5846085BDA89BFECF8D
S113044018B815BC45BB11821082A617B70719F757
S11304500895FC01DB01645F7F4F41E0808191815D
S1130460892B39F493B1946095B920813181232B80
S1130470C9F38C91129688B984B584BD85B584601E
S113048085BDA89BFECF18B815BC45BB1182108250
S1130490A617B70719F70895FC01A0E0B2E068E0D9
S11304A072E041E080819181892B39F493B19860A5
S11304B095B920813181232BC9F38C91129688B987
S11304C084B584BD85B5846085BDA89BFECF18B86E
S11304D015BC45BB11821082A617B70719F70895FA
S11304E088E98093C10087E690E09093C5008093EB
S11304F0C40086E08093C2000895E0ECF0E08081BF
S113050085FFFDCF6093C60008950F931F93CF938B
S1130510DF93EB016881662339F08C012196C801D1
S1130520ECDF69916111FBCFDF91CF911F910F91A6
S11305300895EE0FFF1F881F8BBF0790F691E02DE3
S10905401994F894FFCFAA
S1130546000001000100010001000100010000009B
S113055650726F6772616D20737461727465742E64
S11305660C0A0A0A0D005F5F5F5F5F5F5F5F5F5F94
S11305765F5F5F5F5F5F5F5F5F5F5F5F5F5F5F5F81
S11305865F5F5F5F5F5F5F5F5F5F5F5F5F5F5F5F71
S11305965F5F0A0D002020202020205820202020E4
S11305A620202020205820202020202020202058D1
S11305B62020202020202020202020202020202031
S11305C6582058205820580A0D0020202020205852
S11305D620582020202020202020582020202020A1
S11305E620202020582020202020202020202020C9
S11305F62020202020202020202020580A0D002002
S11306062020205820202058202020202020205838
S11306162020202020202020205820202020202098
S113062620202020202020202020202020202020C0
S11306365820200A0D002020205820202020205851
S11306462020202020205820202020202020202068
S11306565820202020582058205820582058202040
S113066620582058205820580A0D00202058205879
S11306762058205820582020202020582020202090
S11306862020202020582020202020202020202028
S1130696202020202020580A0D0020582020202029
S11306A620202020205820202020205820202020D0
S11306B620202058202020202020202020202020F8
S11306C62020202020580A0D0058202020202020F9
S11306D62020202020582020202020582058205830
S11306E620582020202020202020202020202020C8
S11306F62020202058205820582058200A0D000A6F
S11307060D4C616D70656E207461656E6465732E43
S1130716004C616D70656E20736C756B6B65730050
S9030000FC
