S01300005472616E736D69747465722E7372656374
S113000072C000009FC000009CC000009AC00000A5
S113001098C0000096C0000094C0000092C0000088
S113002090C000008EC000008CC000008AC0000098
S113003088C0000086C0000084C0000082C00000A8
S113004080C000007EC000007CC000007AC00000B8
S113005078C0000076C0000074C0000072C00000C8
S113006070C000009DC000006CC000006AC00000A9
S113007068C0000066C0000064C0000062C00000E8
S113008060C000005EC000005CC000005AC00000F8
S113009058C0000056C0000054C0000052C0000008
S11300A050C000004EC000004CC000004AC0000018
S11300B048C0000046C0000044C0000042C0000028
S11300C040C000003EC000003CC000003AC0000038
S11300D038C0000036C0000034C0000032C0000048
S11300E030C00000AF0111241FBECFEFD1E2DEBF4C
S11300F0CDBF00E00CBF12E0A0E0B2E0E2E3F4E028
S113010000E00BBF02C007900D92A032B107D9F7EF
S113011022E0A0E2B2E001C01D92A332B207E1F7EF
S113012010E0C3E7D0E000E005C021970109802F6B
S1130130FE0175D1C237D10780E00807B1F750D06E
S113014076C15ECF1F920F920FB60F9211240BB699
S11301500F922F933F934F935F936F937F938F935C
S11301609F93AF93BF93EF93FF9361E070E080E2BE
S113017092E001D183B1805885B9FF91EF91BF918D
S1130180AF919F918F917F916F915F914F913F912B
S11301902F910F900BBE0F900FBE0F901F901895CC
S11301A01F920F920FB60F9211248F938091C60065
S11301B0809322028F910F900FBE0F901F9018957D
S11301C07894E89AE9E6F0E080818160808308957C
S11301D08FEF84B987B91AB815B818B81BB8089541
S11301E0CF93DF93CDB7DEB769970FB6F894DEBF30
S11301F00FBECDBFEDDFE4DFCE010196E7D06E0187
S11302008EE0C80ED11C992493947E01EAE1EE0E8F
S1130210F11C77247A94AA24A394B12C0F2EF0E332
S11302208F2EF02D80912202813669F08091220276
S1130230823649F080912202833629F0809122028D
S1130240843609F089C0809122028136E9F460E1A4
S113025072E0CE010196CFD01B821A82BD82AC829D
S11302601F821E82B986A8861B861A86BD86AC8626
S1130270BF86AE86198A188ABB8AAA8A1D8A1C8AF6
S1130280BF8AAE8A198E188E80E292E07BD08E01EE
S11302900E5F1F4F80E292E06AD0892BD9F3F801F8
S11302A080810E5F1F4F88B984B584BD85B5826097
S11302B085BDA89BFECF18B885B585BD95BA60E00D
S11302C070E080E292E057D0C016D10619F78E0193
S11302D0025F1F4F80E292E04AD0892BD9F3F801E4
S11302E080810E5F1F4F88B984B584BD85B5826057
S11302F085BDA89BFECF18B885B585BD95BA60E0CD
S113030070E080E292E037D00E151F0519F700E087
S113031010E080E292E02BD0892BD9F3F801EE0FA4
S1130320FF1FE050FE4F8081918188B984B584BD60
S113033085B5826085BDA89BFECF18B885B585BDFF
S113034095BA60E070E080E292E015D00F5F1F4F35
S113035004301105F1F675B88092220263CF80E271
S113036092E001C00895FC01118210820895FC01FD
S11303708081918108956230710518F4FC017183C4
S113038060830895FC01A8E0B2E060E172E041E01E
S113039080819181892B39F493B1916095B9208141
S11303A03181232BC9F38C91129688B984B584BD0D
S11303B085B5826085BDA89BFECF85B585BD45BB4F
S11303C011821082A617B70719F7089588E9809358
S11303D0C10087E690E09093C5008093C40086E056
S11303E08093C2000895E0ECF0E0808185FFFDCFAA
S11303F06093C60008950F931F93CF93DF93EB018F
S11304006881662339F08C012196C801ECDF69917B
S11304106111FBCFDF91CF911F910F910895EE0FE2
S1130420FF1F881F8BBF0790F691E02D1994F89455
S1050430FFCFF8
S113043200000100010001000100010001000000B0
S11304424C616D70656E2065722074E66E64740092
S9030000FC
