:1000000071C000008FC000008CC000008AC00000DA
:1000100088C0000086C0000084C0000082C00000CC
:1000200080C000007EC000007CC000007AC00000DC
:1000300078C0000076C0000074C0000072C00000EC
:1000400070C000006EC000006CC000006AC00000FC
:1000500068C0000066C0000064C0000062C000000C
:1000600060C000005EC000005CC000005AC000001C
:1000700058C0000056C0000054C0000052C000002C
:1000800050C000004EC000004CC000004AC000003C
:1000900048C0000046C0000044C0000042C000004C
:1000A00040C000003EC000003CC000003AC000005C
:1000B00038C0000036C0000034C0000032C000006C
:1000C00030C000002EC000002CC000002AC000007C
:1000D00028C0000026C0000024C0000022C000008C
:1000E00020C0000011241FBECFEFD1E2DEBFCDBF84
:1000F00000E00CBF12E0A0E0B2E0ECEBF2E000E0C8
:100100000BBF02C007900D92A832B107D9F722E0C9
:10011000A8E2B2E001C01D92AA32B207E1F729D0ED
:10012000CBC06ECF1F920F920FB60F9211248F93F8
:100130009F9381E090E0909329028093280283B1FD
:10014000805885B99F918F910F900FBE0F901F908F
:1001500018957894E89AE9E6F0E0808181608083E0
:1001600008958FEF84B987B91AB815B818B81BB8B5
:100170000895CF93DF93CDB7DEB768970FB6F894A5
:10018000DEBF0FBECDBFEDDFE4DF8CE0E0E1F2E0EB
:10019000DE011D9601900D928A95E1F78CE0ECE16D
:1001A000F2E0DE01119601900D928A95E1F7E8E008
:1001B000F2E040E152E021E0809128029091290292
:1001C000892BD1F38081329688B984B584BD85B5F9
:1001D000826085BDA89BFECF18B885B585BD25BBBF
:1001E0001092290210922802E417F50729F7FE0160
:1001F0003D96AE01475E5F4F21E0809128029091CD
:100200002902892BD1F38081329688B984B584BDC7
:1002100085B5826085BDA89BFECF18B885B585BD24
:1002200025BB10922902109228024E175F0729F76A
:10023000FE013196AE01435F5F4F21E080912802BD
:1002400090912902892BD1F38081329688B984B5A7
:1002500084BD85B5826085BDA89BFECF18B885B5E5
:1002600085BD25BB1092290210922802E417F507DC
:1002700029F7E0E0F2E048E052E021E08091280236
:1002800090912902892BD1F38081329688B984B567
:1002900084BD85B5826085BDA89BFECF18B885B5A5
:1002A00085BD25BB10922902109228024E175F07C8
:0C02B00029F78FEF85B9FECFF894FFCF3F
:1002BC00000001000100010001000100010000002C
:1002CC00000001000000010000000100010000001E
:0802DC00010000000100000018
:00000001FF
