S01300005472616E736D69747465722E7372656374
S113000071C000008FC000008CC000008AC00000D6
S113001088C0000086C0000084C0000082C00000C8
S113002080C000007EC000007CC000007AC00000D8
S113003078C0000076C0000074C0000072C00000E8
S113004070C000006EC000006CC000006AC00000F8
S113005068C0000066C0000064C0000062C0000008
S113006060C0000076C000005CC000005AC0000000
S113007058C0000056C0000054C0000052C0000028
S113008050C000004EC000004CC000004AC0000038
S113009048C0000046C0000044C0000042C0000048
S11300A040C000003EC000003CC000003AC0000058
S11300B038C0000036C0000034C0000032C0000068
S11300C030C000002EC000002CC000002AC0000078
S11300D028C0000026C0000024C0000022C0000088
S11300E020C0000011241FBECFEFD1E2DEBFCDBF80
S11300F000E00CBF12E0A0E0B2E0E2ECF2E000E0CD
S11301000BBF02C007900D92A431B107D9F722E0CA
S1130110A4E1B2E001C01D92A731B207E1F739D0E2
S1130120CEC06ECF1F920F920FB60F9211248F93F1
S11301309F9381E090E0909316028093150283B11F
S1130140805885B99F918F910F900FBE0F901F908B
S113015018951F920F920FB60F9211248F938091CE
S1130160C600809314028F910F900FBE0F901F90C2
S113017018957894E89AE9E6F0E0808181608083BC
S113018008958FEF84B987B91AB815B818B81BB891
S11301900895CF93DF93CDB7DEB72D970FB6F894BC
S11301A0DEBF0FBECDBFEDDFE4DFCE0101965ED032
S11301B0EE24E394F12C06EC10E0809114028136D5
S11301C061F080911402823641F0809114028336EA
S11301D021F080911402843681F7809114028136D3
S11301E091F560E072E0CE01019655D01B821A822F
S11301F0FD82EC821F821E82F986E8861B861A869F
S1130200FD86EC86FE01329620E030E08081D80144
S11302108C93BFEF49E688E1B15040408040E1F75C
S113022000C0000043B1808191813296022E02C049
S1130230880F991F0A94E2F7842785B92F5F3F4FEF
S11302402630310519F780911402D8018C9360E1AE
S113025072E0CE0101961FD0BFEFE3EDF0E3B150A1
S1130260E040F040E1F700C00000A7CF88E98093A8
S1130270C10087E690E09093C5008093C40086E0B7
S11302808093C2000895E0ECF0E0808185FFFDCF0B
S11302906093C60008950F931F93CF93DF93EB01F0
S11302A06881662339F08C012196C801ECDF6991DD
S11302B06111FBCFDF91CF911F910F910895F894B5
S10502C0FFCF6A
S11302C24C616D70656E2065722074E66E64740014
S10702D248656A000D
S9030000FC
