:1000000071C00000E4C000007FC000007DC000009F
:100010007BC0000079C0000077C0000075C0000000
:1000200073C0000071C000006FC000006DC0000010
:100030006BC0000069C0000067C0000065C0000020
:1000400063C0000061C000005FC000005DC0000030
:100050005BC0000059C0000057C0000055C0000040
:1000600053C0000051C000004FC000004DC0000050
:100070004BC0000049C0000047C0000045C0000060
:1000800043C0000041C000003FC000003DC0000070
:100090003BC0000039C0000037C0000035C0000080
:1000A00033C0000031C000002FC000002DC0000090
:1000B0002BC0000029C0000027C0000025C00000A0
:1000C00023C0000021C000001FC000001DC00000B0
:1000D0001BC0000019C0000017C0000015C00000C0
:1000E00013C0000011241FBECFEFD1E2DEBFCDBF91
:1000F00000E00CBF22E0A0E0B2E001C01D92A230FF
:10010000B207E1F75ED08AC07BCF8FEF80BB1AB811
:1001100084B911BA0895E89AE9E6F0E08081836035
:10012000808308958091000290910102892B09F447
:1001300015B88091000290910102019711F481E0BD
:1001400085B98091000290910102029709F415B8D7
:100150008091000290910102039711F481E085B92A
:100160008091000290910102049711F481E085B919
:100170008091000290910102059781F415B81092C8
:100180000102109200022FEF87EA91E62150804091
:100190009040E1F700C000008FEF85B92FEF87EAAC
:1001A00091E6215080409040E1F700C0000080912E
:1001B0000002909101020196909301028093000247
:1001C000089578948FEF84B9A0DFA5DFFFCF1F9249
:1001D0000F920FB60F9211240BB60F922F933F93ED
:1001E0004F935F936F937F938F939F93AF93BF933F
:1001F000EF93FF9397DFFF91EF91BF91AF919F91A5
:100200008F917F916F915F914F913F912F910F90BF
:100210000BBE0F900FBE0F901F901895F894FFCF54
:00000001FF
