:1000000073C0000015C100009DC000009BC000002F
:1000100099C0000097C0000095C0000093C0000088
:1000200091C000008FC000008DC000008BC0000098
:1000300089C0000087C0000085C0000083C00000A8
:1000400081C000007FC000007DC000007BC00000B8
:1000500079C0000077C0000075C0000073C00000C8
:1000600071C000006FC000006DC000006BC00000D8
:1000700069C0000067C0000065C0000063C00000E8
:1000800061C000005FC000005DC000005BC00000F8
:1000900059C0000057C0000055C0000053C0000008
:1000A00051C000004FC000004DC000004BC0000018
:1000B00049C0000047C0000045C0000043C0000028
:1000C00041C000003FC000003DC000003BC0000038
:1000D00039C0000037C0000035C0000033C0000048
:1000E00031C0000043014A0111241FBECFEFD1E20D
:1000F000DEBFCDBF00E00CBF12E0A0E0B2E0E4EE56
:10010000F6E000E00BBF02C007900D92AC33B107E0
:10011000D9F722E0ACE3B2E001C01D92A735B207E7
:10012000E1F710E0C3E7D0E000E005C02197010946
:10013000802FFE018BD2C237D10780E00807B1F7CC
:1001400013D0BFC25DCF7894E89AE9E6F0E08081F1
:1001500081608083089587E880937A0080E48093AB
:100160007C0010927B000895CF93DF931F92CDB750
:10017000DEB7CE0101961ED210BA1AB88FEF84B93D
:1001800015B8E1DFE8DF8DE392E0B4D08DE392E0D3
:1001900014D1BC01CE01019636D266E372E0CE01E5
:1001A00001961DD260E072E0CE01019618D20F2EAA
:1001B000F0ECDF2EF02DCC24CA948DE392E046D1F2
:1001C0000197D9F7D5B88DE392E072D18C01BC01CB
:1001D000CE01019618D266E372E0CE010196FFD1FE
:1001E0008DE392E090D17C01BC01CE0101960BD24F
:1001F0008DE392E0B2D18DE392E0DFD008171907CA
:10020000E1F662E172E0CE010196E9D185E1E816FE
:10021000F10431F08AE2E816F10421F4C5B8CDCF3B
:1002200015B8CBCF65E272E0CE010196D8D1C5CF2B
:100230001F920F920FB60F9211240BB60F922F93AD
:100240003F934F935F936F937F938F939F93AF935E
:10025000BF93EF93FF9361E070E08DE392E046D0AF
:10026000FF91EF91BF91AF919F918F917F916F918E
:100270005F914F913F912F910F900BBE0F900FBE4A
:100280000F901F9018958DE392E008D08CE392E0D8
:1002900091C108958DE392E028C00895CF93DF9334
:1002A0001F92CDB7DEB7FC01118210821382128239
:1002B00017861686118A108A158214828EE090E0C5
:1002C0009783868387E090E09187808785E190E03F
:1002D000938782878AE290E095878487CE01019692
:1002E00069D10F90DF91CF9108950895FC0171833A
:1002F00060830895FC0181E052E044E038E020E1B1
:1003000060E2069B55C000990CC07FEF94E3ACE01F
:1003100071509040A040E1F700C0000093B19827D1
:1003200095B901990CC07FEF94E3ACE07150904017
:10033000A040E1F700C0000093B1952795B902995C
:100340000CC07FEF94E3ACE071509040A040E1F727
:1003500000C0000093B1942795B903990CC07FEFBA
:1003600094E3ACE071509040A040E1F700C0000081
:1003700093B1932795B904990CC07FEF94E3ACE057
:1003800071509040A040E1F700C0000093B1922767
:1003900095B90599B6CF7FEF94E3ACE071509040EA
:1003A000A040E1F700C0000093B1962795B9A9CF0E
:1003B00083B190E0938782870895FC0182859385BD
:1003C0000895CF93DF93EC0189EC86BD84B584BD9D
:1003D00085B5856085BDA89BFECF15BC81E085BB3A
:1003E000EAE7F0E0808180648083808186FDFDCF34
:1003F00060917800709179007F876E87888D998DE4
:1004000002D169E372E0888D998DE9D08E859F8550
:10041000288939892817390744F4863091052CF04A
:1004200021E030E03B832A8302C01B821A82998B31
:10043000888B6A817B81888D998DE5D069E372E034
:10044000888D998DCCD0DF91CF910895CF93DF9394
:10045000EC011D821C821B8A1A8A4E815F812C81CD
:100460003D8142175307E1F0888199810197C9F7CF
:100470008A899B890797BCF4CE01A3DF8C819D817B
:10048000880F991F2A813B81822B932B9D838C831C
:10049000198218828A899B8901969B8B8A8BDDCF72
:1004A00081E090E002C080E090E0DF91CF9108957C
:1004B000CF93DF93EC011D821C821B8A1A8A4A8526
:1004C0005B858C819D8148175907D1F0288139813E
:1004D00021303105C1F78A899B8907977CF4CE01C9
:1004E00070DF8C819D81880F991F2A813B81822B2F
:1004F000932B9D838C8319821882E1CF80E090E05A
:10050000DF91CF910895CF93DF93EC011D821C8280
:100510001B8A1A8A8C859D850097E1F088819981D4
:100520000197B1F4CE014DDF2C813D81220F331FA5
:100530008A819B81282B392B3D832C831982188239
:100540008C859D858217930729F080E090E002C09A
:1005500080E090E0DF91CF910895CF93DF93EC019D
:100560001D821C821B8A1A8A488559852C813D81EF
:1005700042175307B9F0888199810197C9F78A8991
:100580009B89079794F4CE011CDF8C819D81880F95
:10059000991F2A813B81822B932B9D838C83198207
:1005A0001882E2CF81E090E002C080E090E0DF912D
:1005B000CF91089588E98093C10087E690E09093F9
:1005C000C5008093C40086E08093C2000895E0ECEB
:1005D000F0E0808185FFFDCF6093C60008950F9302
:1005E0001F93CF93DF93EB016881662339F08C0171
:1005F0002196C801ECDF69916111FBCFDF91CF91AA
:100600001F910F9108950F931F93CF93DF93CDB751
:10061000DEB727970FB6F894DEBF0FBECDBF8C01B3
:10062000CB014AE0BE016F5F7F4F18D0BE016F5F04
:100630007F4FC801D4DF27960FB6F894DEBF0FBEF8
:10064000CDBFDF91CF911F910F910895EE0FFF1F46
:10065000881F8BBF0790F691E02D1994BB274A3075
:1006600031F4992322F4BDE2909581959F4F01C00A
:10067000BB27FB015527AA27880F991FAA1FA4177C
:1006800010F0A41B83955051B9F7A05DAA3308F070
:10069000A95DA193009779F7B111B1931192CB01A4
:1006A00000C0DC01FC01672F71917723E1F73297DD
:1006B00004C07C916D9370836291AE17BF07C8F33D
:1006C000089510E0C3E7D0E000E005C0802FFE01F0
:1006D000BDDF2196011DC437D10780E00807B1F7BF
:0406E000F894FFCFBC
:1006E40070726F6772616D207374617274657220C9
:1006F4000A000A0D416472657373656E207061733C
:10070400736564650044656E2067696B20692064C5
:0C071400656661756C740A0D005C0000E5
:00000001FF
