:1000000073C00000DEC000009DC000009BC0000067
:1000100099C0000097C0000095C0000093C0000088
:1000200091C000008FC000008DC000008BC0000098
:1000300089C0000087C0000085C0000083C00000A8
:1000400081C000007FC000007DC000007BC00000B8
:1000500079C0000077C0000075C0000073C00000C8
:1000600071C000006FC000006DC000006BC00000D8
:1000700069C0000067C0000065C0000063C00000E8
:1000800061C000005FC000005DC000005BC00000F8
:1000900059C0000057C0000055C0000053C0000008
:1000A00051C000004FC000004DC000004BC0000018
:1000B00049C0000047C0000045C0000043C0000028
:1000C00041C000003FC000003DC000003BC0000038
:1000D00039C0000037C0000035C0000033C0000048
:1000E00031C000000C01130111241FBECFEFD1E27B
:1000F000DEBFCDBF00E00CBF12E0A0E0B2E0E8E759
:10010000F6E000E00BBF02C007900D92A431B107EA
:10011000D9F722E0A4E1B2E001C01D92AF32B207EC
:10012000E1F710E0C3E7D0E000E005C02197010946
:10013000802FFE0155D2C237D10780E00807B1F702
:1001400013D089C25DCF7894E89AE9E6F0E0808127
:1001500081608083089587E880937A0080E48093AB
:100160007C0010927B000895CF93DF931F92CDB750
:10017000DEB7CE010196E8D110BA1AB88FEF84B974
:1001800015B8E1DFE8DF85E192E07DD085E192E01E
:10019000D8D0BC01CE01019600D260E072E0CE0161
:1001A0000196E7D185E192E015D10197D9F785E174
:1001B00092E042D185E192E06CD185E192E097D165
:1001C000F1CF1F920F920FB60F9211240BB60F9220
:1001D0002F933F934F935F936F937F938F939F934F
:1001E000AF93BF93EF93FF9361E070E085E192E0FE
:1001F00046D0FF91EF91BF91AF919F918F917F91E9
:100200006F915F914F913F912F910F900BBE0F9087
:100210000FBE0F901F90189585E192E008D084E101
:1002200092E092C1089585E192E028C00895CF93AD
:10023000DF931F92CDB7DEB7FC01118210821382CB
:10024000128217861686118A108A158214828EE011
:1002500090E09783868387E090E09187808785E1AF
:1002600090E0938782878AE290E095878487CE0129
:1002700001966AD10F90DF91CF9108950895FC0106
:1002800071836083089551E042E034E028E090E11A
:1002900060E2069B55C000990CC07FEF84E3ECE060
:1002A00071508040E040E1F700C0000083B1852735
:1002B00085B901990CC07FEF84E3ECE07150804078
:1002C000E040E1F700C0000083B1842785B90299BE
:1002D0000CC07FEF84E3ECE071508040E040E1F738
:1002E00000C0000083B1832785B903990CC07FEF5C
:1002F00084E3ECE071508040E040E1F700C0000092
:1003000083B1822785B904990CC07FEF84E3ECE0C8
:1003100071508040E040E1F700C0000083B18927C0
:1003200085B90599B6CF7FEF84E3ECE0715080404A
:10033000E040E1F700C0000083B1862785B9A9CF6E
:100340000895FC01828593850895CF93DF93EC0196
:1003500089EC86BD84B584BD85B5856085BDA89BC7
:10036000FECF15BC81E085BBEAE7F0E080818064C8
:100370008083808186FDFDCF609178007091790047
:100380007F876E87888D998D08D162E172E0888DB4
:10039000998DEFD08E859F8528893989281739074F
:1003A00044F4863091052CF021E030E03B832A8331
:1003B00002C01B821A82998B888B6A817B81888D0F
:1003C000998DEBD062E172E0888D998DD2D0DF916A
:1003D000CF910895CF93DF93EC011D821C821B8A7D
:1003E0001A8A4E815F812C813D8142175307E1F0CB
:1003F000888199810197C9F78A899B890797BCF4FD
:10040000CE01A3DF8C819D81880F991F2A813B81BA
:10041000822B932B9D838C83198218828A899B89D6
:1004200001969B8B8A8BDDCF81E090E002C080E05B
:1004300090E0DF91CF910895CF93DF93EC011D827F
:100440001C821B8A1A8A4A855B852C813D81421752
:100450005307B9F0888199810197C9F78A899B89E7
:10046000079794F4CE0171DF8C819D81880F991FCD
:100470002A813B81822B932B9D838C831982188246
:10048000E2CF81E090E002C080E090E0DF91CF9188
:100490000895CF93DF93EC011D821C821B8A1A8A78
:1004A0008C859D85892BD9F0888199810197D1F41C
:1004B000CE014BDF2C813D81220F331F8A819B812E
:1004C000282B392B3D832C831982188281E090E000
:1004D0004C855D854217530739F080E005C081E007
:1004E00090E002C080E090E0DF91CF910895CF933B
:1004F000DF93EC011D821C821B8A1A8A488559856C
:100500002C813D8142175307B9F088819981019769
:10051000C9F78A899B89079794F4CE0116DF8C81ED
:100520009D81880F991F2A813B81822B932B9D836C
:100530008C8319821882E2CF81E090E002C080E0D3
:1005400090E0DF91CF91089588E98093C10087E61C
:1005500090E09093C5008093C40086E08093C20031
:100560000895E0ECF0E0808185FFFDCF6093C60048
:1005700008950F931F93CF93DF93EB016881662358
:1005800039F08C012196C801ECDF69916111FBCF34
:10059000DF91CF911F910F9108950F931F93CF93E8
:1005A000DF93CDB7DEB727970FB6F894DEBF0FBE47
:1005B000CDBF8C01CB014AE0BE016F5F7F4F18D0E9
:1005C000BE016F5F7F4FC801D4DF27960FB6F89446
:1005D000DEBF0FBECDBFDF91CF911F910F91089568
:1005E000EE0FFF1F881F8BBF0790F691E02D199427
:1005F000BB274A3031F4992322F4BDE290958195CE
:100600009F4F01C0BB27FB015527AA27880F991FC1
:10061000AA1FA41710F0A41B83955051B9F7A05D31
:10062000AA3308F0A95DA193009779F7B111B193AE
:100630001192CB0100C0DC01FC01672F719177237F
:10064000E1F7329704C07C916D9370836291AE178D
:10065000BF07C8F3089510E0C3E7D0E000E005C08D
:10066000802FFE01BDDF2196011DC437D10780E038
:080670000807B1F7F894FFCF71
:1006780070726F6772616D20737461727465722035
:040688000A005C0008
:00000001FF
