S010000052656369657665722E73726563DF
S113000071C000008FC000008CC000008AC00000D6
S113001088C0000086C0000084C0000082C00000C8
S113002080C000007EC000007CC000007AC00000D8
S113003078C0000076C0000074C0000072C00000E8
S113004070C000006EC000006CC000006AC00000F8
S113005068C0000066C0000064C0000062C0000008
S113006060C000005EC000005CC000005AC0000018
S113007058C0000056C0000054C0000052C0000028
S113008050C000004EC000004CC000004AC0000038
S113009048C0000046C0000044C0000042C0000048
S11300A040C000003EC000003CC000003AC0000058
S11300B038C0000036C0000034C0000032C0000068
S11300C030C000002EC000002CC000002AC0000078
S11300D028C0000026C0000024C0000022C0000088
S11300E020C0000011241FBECFEFD1E2DEBFCDBF80
S11300F000E00CBF12E0A0E0B2E0EAEAF5E000E0C4
S11301000BBF02C007900D92A631B107D9F722E0C8
S1130110A6E1B2E001C01D92AA31B207E1F72ED0E8
S113012042C26ECF1F920F920FB60F9211248F937B
S11301309F9383B1805885B91092170210921602CA
S113014081E090E090931902809318029F918F911F
S11301500F900FBE0F901F9018957894E89AE9E6D7
S1130160F0E0808181608083089587E880937A003D
S113017080E480937C0010927B000895CF93DF93FA
S113018000D01F921F92CDB7DEB710BA1AB88FEF06
S113019084B915B8E2DFE9DF212C312C412C512C34
S11301A002E010E00F2EFAE7EF2EF12CF02DCE0135
S11301B001967AD160E072E0CE0101968AD14301C2
S11301C08C289D280E30110579F1809118029091A8
S11301D01902019731F08091180290911902019748
S11301E0D1F7D7018C9180648C93F701808186FDCF
S11301F0FCCFA8E7B0E06D917C91CE0101967DD152
S113020063E172E0CE01019664D18091160290916F
S113021017028401082B192B0A291B291092190291
S1130220109218025C01CECF6091160270911702F1
S1130230950140E050E0F62FE72F8091180290914D
S11302401902892B99F01CC0EA81FB81FD83EC83A0
S11302507B826A82360169019B016091160270916A
S1130260170240E050E0F62FE72F52C080911802A9
S113027090911902892B21F446305105B9F7EDCF3D
S1130280AC81BD81AA0FBB1FA295B295B07FBA27DE
S1130290A07FBA278A819B8182959295907F982727
S11302A0807F98278A2B9B2B862B972B2301440C2A
S11302B0551C440C551C440C551C84299529D60105
S11302C0AA0FBB1FAA0FBB1F8A2B9B2B2901440C0F
S11302D0551C482A592A10921902109218024F5F8D
S11302E05F4F8A819B819D838C83962D872DBC2DA6
S11302F0AD2D022F132F4630510509F4A5CF2F2F12
S11303003E2FC02ED12E6B2E7A2E9A838B8395CFBF
S11303108091180290911902892B79F018C0AA8152
S1130320BB81BD83AC83360169019B01A090160299
S1130330B09017025A2D4B2D52C080911802909103
S11303401902892B21F446305105B9F7EFCFAC815E
S1130350BD81AA0FBB1FA295B295B07FBA27A07F1B
S1130360BA278A819B8182959295907F9827807F76
S113037098278A2B9B2B862B972B1301220C331C3B
S1130380220C331C220C331C82299329D601AA0F78
S1130390BB1FAA0FBB1F8A2B9B2B1901220C331CDA
S11303A0282A392A10921902109218024F5F5F4FBF
S11303B09C2D8D2DAA81BB81BD83AC834630510514
S11303C009F4ADCF7B826A826901692E782E2F2FC2
S11303D03E2F9ECF6901692E782E252F342F8091D0
S11303E0180290911902892B31F48091180290918E
S11303F01902892BD1F3C601880F991F880F991F01
S11304008301000F111F000F111F000F111F082B74
S1130410192B0A291B29C901880F991F082B192B8D
S113042010921902109218029C2D8D2D073011057F
S113043089F6B5E14B165104F1F4E5E12E163104C9
S113044081F0FAE22F163104B1F447E045B98FEF99
S11304509BE7A2E981509040A040E1F700C0000072
S11304600AC015B8BFEFEBE7F2E9B150E040F04045
S1130470E1F700C000004FEF87EA91E64150804069
S11304809040E1F700C0000045B8AFEFB7EAE1E6FD
S1130490A150B040E040E1F700C0000025B87B82E5
S11304A06A823601690183CE88E98093C10087E6B8
S11304B090E09093C5008093C40086E08093C200CE
S11304C00895E0ECF0E0808185FFFDCF6093C600E5
S11304D008950F931F93CF93DF93EB0168816623F5
S11304E039F08C012196C801ECDF69916111FBCFD1
S11304F0DF91CF911F910F9108950F931F93CF9385
S1130500DF93CDB7DEB727970FB6F894DEBF0FBEE3
S1130510CDBF8C01CB014AE0BE016F5F7F4F10D08D
S1130520BE016F5F7F4FC801D4DF27960FB6F894E2
S1130530DEBF0FBECDBFDF91CF911F910F91089504
S1130540BB274A3031F4992322F4BDE2909581957A
S11305509F4F01C0BB27FB015527AA27880F991F6E
S1130560AA1FA41710F0A41B83955051B9F7A05DDE
S1130570AA3308F0A95DA193009779F7B111B1935B
S11305801192CB0100C0DC01FC01672F719177232C
S1130590E1F7329704C07C916D9370836291AE173A
S10D05A0BF07C8F30895F894FFCFD5
S11305AA696E67656E74696E67206D6F64746167DE
S10905BA6574002F00002F
S9030000FC
