S01200005472616E6369657665722E73726563FF
S113000072C000009FC000009CC000009AC00000A5
S113001098C0000096C0000094C0000092C0000088
S113002090C000008EC000008CC000008AC0000098
S113003088C0000086C0000084C0000082C00000A8
S113004080C000007EC000007CC000007AC00000B8
S1130050C3C0000076C0000074C0000072C000007D
S113006070C00000A9C000006CC000006AC000009D
S113007068C0000066C0000064C0000062C00000E8
S113008060C000005EC000005CC000005AC00000F8
S113009058C0000056C0000054C0000052C0000008
S11300A050C000004EC000004CC000004AC0000018
S11300B048C0000046C0000044C0000042C0000028
S11300C040C000003EC000003CC000003AC0000038
S11300D038C0000036C0000034C0000032C0000048
S11300E030C000000C0311241FBECFEFD1E2DEBFED
S11300F0CDBF00E00CBF16E0A0E0B2E0ECE7F8E012
S113010000E00BBF02C007900D92A034B107D9F7ED
S113011026E0A0E4B6E001C01D92AF35B207E1F7D6
S113012010E0C3E7D0E000E005C021970109802F6B
S1130130FE019AD3C237D10780E00807B1F7E3D0B4
S11301409BC35ECF1F920F920FB60F9211240BB672
S11301500F922F933F934F935F936F937F938F935C
S11301609F93AF93BF93EF93FF9361E070E085E4B7
S113017096E05AD283E99AEF9093850080938400A5
S1130180E0E8F0E080818083E1E8F0E08081836052
S11301908083FF91EF91BF91AF919F918F917F9158
S11301A06F915F914F913F912F910F900BBE0F90E4
S11301B00FBE0F901F9018951F920F920FB60F92BB
S11301C011248F938091C600809340068F910F90E5
S11301D00FBE0F901F9018951F920F920FB60F929B
S11301E011240BB60F922F933F934F935F936F930A
S11301F07F938F939F93AF93BF93EF93FF9310924B
S11302008100ECE7F0E0808181608083EAE7F0E040
S1130210808180648083808186FDFDCF8091780019
S113022090917900181619061CF48B30910544F44A
S113023031E020E0C3970CF430E0432F522F02C08A
S113024041E050E08091410690914206A09143061E
S1130250B0914406880F991FAA1FBB1F052E000CDE
S1130260660B770B842B952BA62BB72B809341061B
S113027090934206A0934306B0934406873529E33E
S11302809207A105B10589F0873A9A43A105B10502
S1130290B9F483B1816085B9109241061092420687
S11302A010924306109244060BC083B18E7F85B929
S11302B01092410610924206109243061092440690
S11302C0FF91EF91BF91AF919F918F917F916F912A
S11302D05F914F913F912F910F900BBE0F900FBEE6
S11302E00F901F9018957894E89AE9E6F0E08081E1
S11302F08160808308958FEF84B987B91AB815B8DF
S113030018B81BB80895CF93DF93CDB7DEB76997BC
S11303100FB6F894DEBF0FBECDBFEDDFE4DFCE0134
S1130320019679D264E372E0CE01019689D26AE43F
S113033072E0CE01019684D261E872E0CE010196AA
S11303407FD267EB72E0CE0101967AD26DEE72E055
S1130350CE01019675D263E273E0CE01019670D2AC
S113036069E573E0CE0101966BD269E472E0CE01D7
S1130370019666D261E973E0CE01019661D267EC21
S113038073E0CE0101965CD26DEF73E0CE0101966D
S113039057D263E374E0CE01019652D261E973E06F
S11303A0CE0101964DD269E674E0CE01019648D2A1
S11303B060EA74E0CE01019643D266ED74E0CE01AA
S11303C001963ED26CE075E0CE01019639D262E42A
S11303D075E0CE01019634D268E775E0CE0101964E
S11303E02FD26EEA75E0CE0101962AD210E38091F5
S11303F04006813389F080914006823369F0809110
S11304004006833349F080914006843329F080917B
S11304104006853309F0FDC080914006833309F41A
S113042055C028F4813351F0823361F1BAC084336A
S113043009F470C0853309F491C0B3C064EE75E06B
S1130440CE010196FDD18CE0E0E1F2E0DE011E96E2
S113045001900D928A95E1F7BE01625F7F4F85E4BA
S113046096E0E9D08CE0ECE1F2E0DE011296019036
S11304700D928A95E1F7BE016E5F7F4F85E496E0A9
S1130480E6D08FC066EF75E0CE010196D9D18CE03D
S1130490E0E1F2E0DE011E9601900D928A95E1F70B
S11304A0BE01625F7F4F85E496E0C5D08CE0E0E159
S11304B0F2E0DE01129601900D928A95E1F7BE01F9
S11304C06E5F7F4F85E496E0C2D06BC067E076E054
S11304D0CE010196B5D18CE0E8E2F2E0DE011E9691
S11304E001900D928A95E1F7BE01625F7F4F85E42A
S11304F096E0A1D08CE0ECE1F2E0DE0112960190EE
S11305000D928A95E1F7BE016E5F7F4F85E496E018
S11305109ED047C06AE176E0CE01019691D18CE08D
S1130520E8E2F2E0DE011E9601900D928A95E1F771
S1130530BE01625F7F4F85E496E07DD08CE0E0E110
S1130540F2E0DE01129601900D928A95E1F7BE0168
S11305506E5F7F4F85E496E07AD023C06EE276E04A
S1130560CE0101966DD18CE0E8E2F2E0DE011E9648
S113057001900D928A95E1F7BE01625F7F4F85E499
S113058096E059D08CE0E0E1F2E0DE0112960190B1
S11305900D928A95E1F7BE016E5F7F4F85E496E088
S11305A056D060E070E085E496E03ED085E496E0C5
S11305B064D085E496E095D085E496E0C5D085E4E2
S11305C096E0F5D080914006853301F560E070E057
S11305D085E496E029D08CE0E0E1F2E0DE011296B9
S11305E001900D928A95E1F7BE016E5F7F4F85E41D
S11305F096E021D085E496E040D085E496E071D081
S113060085E496E0A1D085E496E0D1D083B18095CD
S113061085B910934006EBCE85E496E001C00895B9
S1130620FC011182108208956230710518F4FC01F6
S1130630718360830895DB01FC0132960E962D913F
S11306403D9121933193E817F907C9F70895DB0128
S1130650FC013E964A962D913D9121933193E817E2
S1130660F907C9F7089580EF86BD84B584BD85B5C3
S1130670856085BDA89BFECF0895DF92EF92FF921F
S11306800F931F93CF93DF93EC0108E012E00F2E3A
S1130690F0E1EF2EF2E0FF2EF02DDD24D3948881DB
S11306A09981892B39F483B1816085B988819981D5
S11306B0892BC9F3F80180810E5F1F4F88B9CE01E1
S11306C0D2DF18B815BCD5BA198218820E151F05C9
S11306D031F7DF91CF911F910F91FF90EF90DF9051
S11306E00895DF92EF92FF920F931F93CF93DF93BE
S11306F0EC018C010E5F1F4F7C018EE0E80EF11CB3
S1130700DD24D39488819981892B39F483B1826063
S113071085B988819981892BC9F3F80180810E5F9D
S11307201F4F88B9CE019FDF18B815BCD5BA1982FE
S113073018820E151F0531F7DF91CF911F910F918C
S1130740FF90EF90DF900895DF92EF92FF920F9366
S11307501F93CF93DF93EC018C01025F1F4F7C0149
S11307608AE1E80EF11CDD24D39488819981892BD8
S113077039F483B1846085B988819981892BC9F35F
S1130780F80180810E5F1F4F88B9CE016CDF18B865
S113079015BCD5BA198218820E151F0531F7DF91E1
S11307A0CF911F910F91FF90EF90DF900895DF920A
S11307B0EF92FF920F931F93CF93DF93EC0100E02E
S11307C012E00F2EF8E0EF2EF2E0FF2EF02DDD24E4
S11307D0D39488819981892B39F483B1886085B950
S11307E088819981892BC9F3F80180810E5F1F4F9D
S11307F088B9CE0138DF18B815BCD5BA1982188269
S11308000E151F0531F7DF91CF911F910F91FF90C6
S1130810EF90DF90089588E98093C10087E690E027
S11308209093C5008093C40086E08093C20008952D
S1130830E0ECF0E0808185FFFDCF6093C600089571
S11308400F931F93CF93DF93EB016881662339F0F5
S11308508C012196C801ECDF69916111FBCFDF9116
S1130860CF911F910F910895EE0FFF1F881F8BBF2B
S10F08700790F691E02D1994F894FFCF46
S113087C0000010001000100010001000100000062
S113088C0000010000000100000001000100000054
S113089C0100000001000000010000000000010044
S11308AC0100000050726F6772616D207374617285
S11308BC7465742E0C0A0A0A0D005F5F5F5F5F5F3C
S11308CC5F5F5F5F5F5F5F5F5F5F5F5F5F5F5F5F28
S11308DC5F5F5F5F5F5F5F5F5F5F5F5F5F5F5F5F18
S11308EC5F5F5F5F5F5F5F5F5F5F5F20200A0A0D82
S11308FC0020202020582020202020202020205898
S113090C202020202020205820202020202020209F
S113091C202020202020202020205820582058201F
S113092C582020200A0D0020202058205820202058
S113093C2020202020582020202020202058202037
S113094C2020202020202020202020202020202097
S113095C202020202020582020200A0D0020205860
S113096C2020205820202020202020582020202007
S113097C202020582020202058205820582058204F
S113098C582020202020582058205820582020203F
S113099C0A0D0020582058205820582020202020B0
S11309AC20205820202020205820202020202020C7
S11309BC20202020202020202020202058202020EF
S11309CC2020202020200A0D005820202020202028
S11309DC2058202020202020205820582058202027
S11309EC20202020202020202020202020202020F7
S11309FC2020582058205820582020200A0A0A0D5C
S1130A0C0058202020202020205820202020202086
S1130A1C58205820582020202020205820202020E6
S1130A2C20202020582020202020205820582058D6
S1130A3C205820200A0D0058202020202020205847
S1130A4C2020202020582020202020582020202026
S1130A5C20582058202020205820582020202020A6
S1130A6C205820202020202020200A0D0058205817
S1130A7C2058205820582020202058202020202086
S1130A8C2020582020202058202058202058202076
S1130A9C5820202020202058205820582020202066
S1130AAC0A0D00582020202020202058202020200F
S1130ABC205820202020205820202020205820207E
S1130ACC2058582020205820202020202058202036
S1130ADC2020202020200A0D005F5F5F5F5F5F5F96
S1130AEC5F5F5F5F5F5F5F5F5F5F5F5F5F5F5F5F06
S1130AFC5F5F5F5F5F5F5F5F5F5F5F5F5F5F5F5FF6
S1130B0C5F5F5F5F5F5F5F5F5F5F5F200A0A0D007F
S1130B1C5461656E64206C79733A20202020202067
S1130B2C546173742027312720202020202020207A
S1130B3C20202020202020202020202020202020A5
S1130B4C2020200A0D00536C756B206C79733A20AD
S1130B5C2020202020205461737420273227202049
S1130B6C2020202020202020202020202020202075
S1130B7C2020202020202020200A0D0052756C20DB
S1130B8C67617264696E206F703A202054617374CB
S1130B9C2027332720202020202020202020202024
S1130BAC2020202020202020202020202020200A4B
S1130BBC0D0052756C2067617264696E206E6564F9
S1130BCC3A205461737420273427202020202020BD
S1130BDC2020202020202020202020202020202005
S1130BEC20202020200A0D00536C756B20486A6568
S1130BFC6D3A20202020202054617374202735273F
S1130C0C20202020202020202020202020202020D4
S1130C1C20202020202020202020200A0D005F5F8F
S1130C2C5F5F5F5F5F5F5F5F5F5F5F5F5F5F5F5FC4
S1130C3C5F5F5F5F5F5F5F5F5F5F5F5F5F5F5F5FB4
S1130C4C5F5F5F5F5F5F5F5F5F5F5F5F5F5F5F5FA4
S1130C5C200A0D004C616D70656E207461656E64C4
S1130C6C65732E0A0D004C616D70656E20736C7586
S1130C7C6B6B65730A0D0047617264696E20727543
S1130C8C6C6C6573206F700A0D0047617264696E39
S1130C9C2072756C6C6573206E65640A0D00486A6D
S1130CAC656D206C756B6B6573206E65640A0D0045
S9030000FC
